{
  "contractName": "Unchien",
  "abi": [
    {
      "inputs": [],
      "stateMutability": "nonpayable",
      "type": "constructor"
    },
    {
      "inputs": [],
      "name": "ERC721EnumerableForbiddenBatchMint",
      "type": "error"
    },
    {
      "inputs": [
        {
          "internalType": "address",
          "name": "sender",
          "type": "address"
        },
        {
          "internalType": "uint256",
          "name": "tokenId",
          "type": "uint256"
        },
        {
          "internalType": "address",
          "name": "owner",
          "type": "address"
        }
      ],
      "name": "ERC721IncorrectOwner",
      "type": "error"
    },
    {
      "inputs": [
        {
          "internalType": "address",
          "name": "operator",
          "type": "address"
        },
        {
          "internalType": "uint256",
          "name": "tokenId",
          "type": "uint256"
        }
      ],
      "name": "ERC721InsufficientApproval",
      "type": "error"
    },
    {
      "inputs": [
        {
          "internalType": "address",
          "name": "approver",
          "type": "address"
        }
      ],
      "name": "ERC721InvalidApprover",
      "type": "error"
    },
    {
      "inputs": [
        {
          "internalType": "address",
          "name": "operator",
          "type": "address"
        }
      ],
      "name": "ERC721InvalidOperator",
      "type": "error"
    },
    {
      "inputs": [
        {
          "internalType": "address",
          "name": "owner",
          "type": "address"
        }
      ],
      "name": "ERC721InvalidOwner",
      "type": "error"
    },
    {
      "inputs": [
        {
          "internalType": "address",
          "name": "receiver",
          "type": "address"
        }
      ],
      "name": "ERC721InvalidReceiver",
      "type": "error"
    },
    {
      "inputs": [
        {
          "internalType": "address",
          "name": "sender",
          "type": "address"
        }
      ],
      "name": "ERC721InvalidSender",
      "type": "error"
    },
    {
      "inputs": [
        {
          "internalType": "uint256",
          "name": "tokenId",
          "type": "uint256"
        }
      ],
      "name": "ERC721NonexistentToken",
      "type": "error"
    },
    {
      "inputs": [
        {
          "internalType": "address",
          "name": "owner",
          "type": "address"
        },
        {
          "internalType": "uint256",
          "name": "index",
          "type": "uint256"
        }
      ],
      "name": "ERC721OutOfBoundsIndex",
      "type": "error"
    },
    {
      "anonymous": false,
      "inputs": [
        {
          "indexed": true,
          "internalType": "address",
          "name": "owner",
          "type": "address"
        },
        {
          "indexed": true,
          "internalType": "address",
          "name": "approved",
          "type": "address"
        },
        {
          "indexed": true,
          "internalType": "uint256",
          "name": "tokenId",
          "type": "uint256"
        }
      ],
      "name": "Approval",
      "type": "event"
    },
    {
      "anonymous": false,
      "inputs": [
        {
          "indexed": true,
          "internalType": "address",
          "name": "owner",
          "type": "address"
        },
        {
          "indexed": true,
          "internalType": "address",
          "name": "operator",
          "type": "address"
        },
        {
          "indexed": false,
          "internalType": "bool",
          "name": "approved",
          "type": "bool"
        }
      ],
      "name": "ApprovalForAll",
      "type": "event"
    },
    {
      "anonymous": false,
      "inputs": [
        {
          "indexed": true,
          "internalType": "address",
          "name": "from",
          "type": "address"
        },
        {
          "indexed": true,
          "internalType": "address",
          "name": "to",
          "type": "address"
        },
        {
          "indexed": true,
          "internalType": "uint256",
          "name": "tokenId",
          "type": "uint256"
        }
      ],
      "name": "Transfer",
      "type": "event"
    },
    {
      "inputs": [
        {
          "internalType": "address",
          "name": "to",
          "type": "address"
        },
        {
          "internalType": "uint256",
          "name": "tokenId",
          "type": "uint256"
        }
      ],
      "name": "approve",
      "outputs": [],
      "stateMutability": "nonpayable",
      "type": "function"
    },
    {
      "inputs": [
        {
          "internalType": "address",
          "name": "owner",
          "type": "address"
        }
      ],
      "name": "balanceOf",
      "outputs": [
        {
          "internalType": "uint256",
          "name": "",
          "type": "uint256"
        }
      ],
      "stateMutability": "view",
      "type": "function",
      "constant": true
    },
    {
      "inputs": [
        {
          "internalType": "uint256",
          "name": "tokenId",
          "type": "uint256"
        }
      ],
      "name": "getApproved",
      "outputs": [
        {
          "internalType": "address",
          "name": "",
          "type": "address"
        }
      ],
      "stateMutability": "view",
      "type": "function",
      "constant": true
    },
    {
      "inputs": [],
      "name": "id",
      "outputs": [
        {
          "internalType": "uint256",
          "name": "",
          "type": "uint256"
        }
      ],
      "stateMutability": "view",
      "type": "function",
      "constant": true
    },
    {
      "inputs": [
        {
          "internalType": "address",
          "name": "owner",
          "type": "address"
        },
        {
          "internalType": "address",
          "name": "operator",
          "type": "address"
        }
      ],
      "name": "isApprovedForAll",
      "outputs": [
        {
          "internalType": "bool",
          "name": "",
          "type": "bool"
        }
      ],
      "stateMutability": "view",
      "type": "function",
      "constant": true
    },
    {
      "inputs": [],
      "name": "name",
      "outputs": [
        {
          "internalType": "string",
          "name": "",
          "type": "string"
        }
      ],
      "stateMutability": "view",
      "type": "function",
      "constant": true
    },
    {
      "inputs": [
        {
          "internalType": "uint256",
          "name": "tokenId",
          "type": "uint256"
        }
      ],
      "name": "ownerOf",
      "outputs": [
        {
          "internalType": "address",
          "name": "",
          "type": "address"
        }
      ],
      "stateMutability": "view",
      "type": "function",
      "constant": true
    },
    {
      "inputs": [
        {
          "internalType": "address",
          "name": "from",
          "type": "address"
        },
        {
          "internalType": "address",
          "name": "to",
          "type": "address"
        },
        {
          "internalType": "uint256",
          "name": "tokenId",
          "type": "uint256"
        }
      ],
      "name": "safeTransferFrom",
      "outputs": [],
      "stateMutability": "nonpayable",
      "type": "function"
    },
    {
      "inputs": [
        {
          "internalType": "address",
          "name": "from",
          "type": "address"
        },
        {
          "internalType": "address",
          "name": "to",
          "type": "address"
        },
        {
          "internalType": "uint256",
          "name": "tokenId",
          "type": "uint256"
        },
        {
          "internalType": "bytes",
          "name": "data",
          "type": "bytes"
        }
      ],
      "name": "safeTransferFrom",
      "outputs": [],
      "stateMutability": "nonpayable",
      "type": "function"
    },
    {
      "inputs": [
        {
          "internalType": "address",
          "name": "operator",
          "type": "address"
        },
        {
          "internalType": "bool",
          "name": "approved",
          "type": "bool"
        }
      ],
      "name": "setApprovalForAll",
      "outputs": [],
      "stateMutability": "nonpayable",
      "type": "function"
    },
    {
      "inputs": [
        {
          "internalType": "bytes4",
          "name": "interfaceId",
          "type": "bytes4"
        }
      ],
      "name": "supportsInterface",
      "outputs": [
        {
          "internalType": "bool",
          "name": "",
          "type": "bool"
        }
      ],
      "stateMutability": "view",
      "type": "function",
      "constant": true
    },
    {
      "inputs": [],
      "name": "symbol",
      "outputs": [
        {
          "internalType": "string",
          "name": "",
          "type": "string"
        }
      ],
      "stateMutability": "view",
      "type": "function",
      "constant": true
    },
    {
      "inputs": [
        {
          "internalType": "uint256",
          "name": "index",
          "type": "uint256"
        }
      ],
      "name": "tokenByIndex",
      "outputs": [
        {
          "internalType": "uint256",
          "name": "",
          "type": "uint256"
        }
      ],
      "stateMutability": "view",
      "type": "function",
      "constant": true
    },
    {
      "inputs": [
        {
          "internalType": "address",
          "name": "owner",
          "type": "address"
        },
        {
          "internalType": "uint256",
          "name": "index",
          "type": "uint256"
        }
      ],
      "name": "tokenOfOwnerByIndex",
      "outputs": [
        {
          "internalType": "uint256",
          "name": "",
          "type": "uint256"
        }
      ],
      "stateMutability": "view",
      "type": "function",
      "constant": true
    },
    {
      "inputs": [
        {
          "internalType": "uint256",
          "name": "tokenId",
          "type": "uint256"
        }
      ],
      "name": "tokenURI",
      "outputs": [
        {
          "internalType": "string",
          "name": "",
          "type": "string"
        }
      ],
      "stateMutability": "view",
      "type": "function",
      "constant": true
    },
    {
      "inputs": [],
      "name": "totalSupply",
      "outputs": [
        {
          "internalType": "uint256",
          "name": "",
          "type": "uint256"
        }
      ],
      "stateMutability": "view",
      "type": "function",
      "constant": true
    },
    {
      "inputs": [
        {
          "internalType": "address",
          "name": "from",
          "type": "address"
        },
        {
          "internalType": "address",
          "name": "to",
          "type": "address"
        },
        {
          "internalType": "uint256",
          "name": "tokenId",
          "type": "uint256"
        }
      ],
      "name": "transferFrom",
      "outputs": [],
      "stateMutability": "nonpayable",
      "type": "function"
    },
    {
      "stateMutability": "payable",
      "type": "receive",
      "payable": true
    }
  ],
  "bytecode": "0x608060405234801562000010575f80fd5b506040518060400160405280600b81526020017f556e636869656e204e46540000000000000000000000000000000000000000008152506040518060400160405280600781526020017f554e434849454e00000000000000000000000000000000000000000000000000815250815f90816200008d91906200030c565b5080600190816200009f91906200030c565b505050620003f0565b5f81519050919050565b7f4e487b71000000000000000000000000000000000000000000000000000000005f52604160045260245ffd5b7f4e487b71000000000000000000000000000000000000000000000000000000005f52602260045260245ffd5b5f60028204905060018216806200012457607f821691505b6020821081036200013a5762000139620000df565b5b50919050565b5f819050815f5260205f209050919050565b5f6020601f8301049050919050565b5f82821b905092915050565b5f600883026200019e7fffffffffffffffffffffffffffffffffffffffffffffffffffffffffffffffff8262000161565b620001aa868362000161565b95508019841693508086168417925050509392505050565b5f819050919050565b5f819050919050565b5f620001f4620001ee620001e884620001c2565b620001cb565b620001c2565b9050919050565b5f819050919050565b6200020f83620001d4565b620002276200021e82620001fb565b8484546200016d565b825550505050565b5f90565b6200023d6200022f565b6200024a81848462000204565b505050565b5b818110156200027157620002655f8262000233565b60018101905062000250565b5050565b601f821115620002c0576200028a8162000140565b620002958462000152565b81016020851015620002a5578190505b620002bd620002b48562000152565b8301826200024f565b50505b505050565b5f82821c905092915050565b5f620002e25f1984600802620002c5565b1980831691505092915050565b5f620002fc8383620002d1565b9150826002028217905092915050565b6200031782620000a8565b67ffffffffffffffff811115620003335762000332620000b2565b5b6200033f82546200010c565b6200034c82828562000275565b5f60209050601f83116001811462000382575f84156200036d578287015190505b620003798582620002ef565b865550620003e8565b601f198416620003928662000140565b5f5b82811015620003bb5784890151825560018201915060208501945060208101905062000394565b86831015620003db5784890151620003d7601f891682620002d1565b8355505b6001600288020188555050505b505050505050565b6124ae80620003fe5f395ff3fe608060405260043610610101575f3560e01c80634f6ccce711610094578063a22cb46511610063578063a22cb46514610387578063af640d0f146103af578063b88d4fde146103d9578063c87b56dd14610401578063e985e9c51461043d57610125565b80634f6ccce7146102a95780636352211e146102e557806370a082311461032157806395d89b411461035d57610125565b806318160ddd116100d057806318160ddd146101f357806323b872dd1461021d5780632f745c591461024557806342842e0e1461028157610125565b806301ffc9a71461012957806306fdde0314610165578063081812fc1461018f578063095ea7b3146101cb57610125565b366101255761012333600a5f815461011890611c0e565b919050819055610479565b005b5f80fd5b348015610134575f80fd5b5061014f600480360381019061014a9190611cbb565b61056c565b60405161015c9190611d00565b60405180910390f35b348015610170575f80fd5b506101796105e5565b6040516101869190611da3565b60405180910390f35b34801561019a575f80fd5b506101b560048036038101906101b09190611ded565b610674565b6040516101c29190611e57565b60405180910390f35b3480156101d6575f80fd5b506101f160048036038101906101ec9190611e9a565b61068f565b005b3480156101fe575f80fd5b506102076106a5565b6040516102149190611ee7565b60405180910390f35b348015610228575f80fd5b50610243600480360381019061023e9190611f00565b6106b1565b005b348015610250575f80fd5b5061026b60048036038101906102669190611e9a565b6107b0565b6040516102789190611ee7565b60405180910390f35b34801561028c575f80fd5b506102a760048036038101906102a29190611f00565b610854565b005b3480156102b4575f80fd5b506102cf60048036038101906102ca9190611ded565b610873565b6040516102dc9190611ee7565b60405180910390f35b3480156102f0575f80fd5b5061030b60048036038101906103069190611ded565b6108e5565b6040516103189190611e57565b60405180910390f35b34801561032c575f80fd5b5061034760048036038101906103429190611f50565b6108f6565b6040516103549190611ee7565b60405180910390f35b348015610368575f80fd5b506103716109ac565b60405161037e9190611da3565b60405180910390f35b348015610392575f80fd5b506103ad60048036038101906103a89190611fa5565b610a3c565b005b3480156103ba575f80fd5b506103c3610a52565b6040516103d09190611ee7565b60405180910390f35b3480156103e4575f80fd5b506103ff60048036038101906103fa919061210f565b610a58565b005b34801561040c575f80fd5b5061042760048036038101906104229190611ded565b610a7d565b6040516104349190611da3565b60405180910390f35b348015610448575f80fd5b50610463600480360381019061045e919061218f565b610ae3565b6040516104709190611d00565b60405180910390f35b5f73ffffffffffffffffffffffffffffffffffffffff168273ffffffffffffffffffffffffffffffffffffffff16036104e9575f6040517f64a0ae920000000000000000000000000000000000000000000000000000000081526004016104e09190611e57565b60405180910390fd5b5f6104f583835f610b71565b90505f73ffffffffffffffffffffffffffffffffffffffff168173ffffffffffffffffffffffffffffffffffffffff1614610567575f6040517f73c6ac6e00000000000000000000000000000000000000000000000000000000815260040161055e9190611e57565b60405180910390fd5b505050565b5f7f780e9d63000000000000000000000000000000000000000000000000000000007bffffffffffffffffffffffffffffffffffffffffffffffffffffffff1916827bffffffffffffffffffffffffffffffffffffffffffffffffffffffff191614806105de57506105dd82610c8b565b5b9050919050565b60605f80546105f3906121fa565b80601f016020809104026020016040519081016040528092919081815260200182805461061f906121fa565b801561066a5780601f106106415761010080835404028352916020019161066a565b820191905f5260205f20905b81548152906001019060200180831161064d57829003601f168201915b5050505050905090565b5f61067e82610d6c565b5061068882610df2565b9050919050565b6106a1828261069c610e2b565b610e32565b5050565b5f600880549050905090565b5f73ffffffffffffffffffffffffffffffffffffffff168273ffffffffffffffffffffffffffffffffffffffff1603610721575f6040517f64a0ae920000000000000000000000000000000000000000000000000000000081526004016107189190611e57565b60405180910390fd5b5f610734838361072f610e2b565b610b71565b90508373ffffffffffffffffffffffffffffffffffffffff168173ffffffffffffffffffffffffffffffffffffffff16146107aa578382826040517f64283d7b0000000000000000000000000000000000000000000000000000000081526004016107a19392919061222a565b60405180910390fd5b50505050565b5f6107ba836108f6565b82106107ff5782826040517fa57d13dc0000000000000000000000000000000000000000000000000000000081526004016107f692919061225f565b60405180910390fd5b60065f8473ffffffffffffffffffffffffffffffffffffffff1673ffffffffffffffffffffffffffffffffffffffff1681526020019081526020015f205f8381526020019081526020015f2054905092915050565b61086e83838360405180602001604052805f815250610a58565b505050565b5f61087c6106a5565b82106108c1575f826040517fa57d13dc0000000000000000000000000000000000000000000000000000000081526004016108b892919061225f565b60405180910390fd5b600882815481106108d5576108d4612286565b5b905f5260205f2001549050919050565b5f6108ef82610d6c565b9050919050565b5f8073ffffffffffffffffffffffffffffffffffffffff168273ffffffffffffffffffffffffffffffffffffffff1603610967575f6040517f89c62b6400000000000000000000000000000000000000000000000000000000815260040161095e9190611e57565b60405180910390fd5b60035f8373ffffffffffffffffffffffffffffffffffffffff1673ffffffffffffffffffffffffffffffffffffffff1681526020019081526020015f20549050919050565b6060600180546109bb906121fa565b80601f01602080910402602001604051908101604052809291908181526020018280546109e7906121fa565b8015610a325780601f10610a0957610100808354040283529160200191610a32565b820191905f5260205f20905b815481529060010190602001808311610a1557829003601f168201915b5050505050905090565b610a4e610a47610e2b565b8383610e44565b5050565b600a5481565b610a638484846106b1565b610a77610a6e610e2b565b85858585610fad565b50505050565b6060610a8882610d6c565b505f610a92611159565b90505f815111610ab05760405180602001604052805f815250610adb565b80610aba8461116f565b604051602001610acb9291906122ed565b6040516020818303038152906040525b915050919050565b5f60055f8473ffffffffffffffffffffffffffffffffffffffff1673ffffffffffffffffffffffffffffffffffffffff1681526020019081526020015f205f8373ffffffffffffffffffffffffffffffffffffffff1673ffffffffffffffffffffffffffffffffffffffff1681526020019081526020015f205f9054906101000a900460ff16905092915050565b5f80610b7e858585611239565b90505f73ffffffffffffffffffffffffffffffffffffffff168173ffffffffffffffffffffffffffffffffffffffff1603610bc157610bbc84611444565b610c00565b8473ffffffffffffffffffffffffffffffffffffffff168173ffffffffffffffffffffffffffffffffffffffff1614610bff57610bfe8185611488565b5b5b5f73ffffffffffffffffffffffffffffffffffffffff168573ffffffffffffffffffffffffffffffffffffffff1603610c4157610c3c8461155f565b610c80565b8473ffffffffffffffffffffffffffffffffffffffff168173ffffffffffffffffffffffffffffffffffffffff1614610c7f57610c7e858561161f565b5b5b809150509392505050565b5f7f80ac58cd000000000000000000000000000000000000000000000000000000007bffffffffffffffffffffffffffffffffffffffffffffffffffffffff1916827bffffffffffffffffffffffffffffffffffffffffffffffffffffffff19161480610d5557507f5b5e139f000000000000000000000000000000000000000000000000000000007bffffffffffffffffffffffffffffffffffffffffffffffffffffffff1916827bffffffffffffffffffffffffffffffffffffffffffffffffffffffff1916145b80610d655750610d64826116a3565b5b9050919050565b5f80610d778361170c565b90505f73ffffffffffffffffffffffffffffffffffffffff168173ffffffffffffffffffffffffffffffffffffffff1603610de957826040517f7e273289000000000000000000000000000000000000000000000000000000008152600401610de09190611ee7565b60405180910390fd5b80915050919050565b5f60045f8381526020019081526020015f205f9054906101000a900473ffffffffffffffffffffffffffffffffffffffff169050919050565b5f33905090565b610e3f8383836001611745565b505050565b5f73ffffffffffffffffffffffffffffffffffffffff168273ffffffffffffffffffffffffffffffffffffffff1603610eb457816040517f5b08ba18000000000000000000000000000000000000000000000000000000008152600401610eab9190611e57565b60405180910390fd5b8060055f8573ffffffffffffffffffffffffffffffffffffffff1673ffffffffffffffffffffffffffffffffffffffff1681526020019081526020015f205f8473ffffffffffffffffffffffffffffffffffffffff1673ffffffffffffffffffffffffffffffffffffffff1681526020019081526020015f205f6101000a81548160ff0219169083151502179055508173ffffffffffffffffffffffffffffffffffffffff168373ffffffffffffffffffffffffffffffffffffffff167f17307eab39ab6107e8899845ad3d59bd9653f200f220920489ca2b5937696c3183604051610fa09190611d00565b60405180910390a3505050565b5f8373ffffffffffffffffffffffffffffffffffffffff163b1115611152578273ffffffffffffffffffffffffffffffffffffffff1663150b7a02868685856040518563ffffffff1660e01b815260040161100b9493929190612362565b6020604051808303815f875af192505050801561104657506040513d601f19601f8201168201806040525081019061104391906123c0565b60015b6110c7573d805f8114611074576040519150601f19603f3d011682016040523d82523d5f602084013e611079565b606091505b505f8151036110bf57836040517f64a0ae920000000000000000000000000000000000000000000000000000000081526004016110b69190611e57565b60405180910390fd5b805181602001fd5b63150b7a0260e01b7bffffffffffffffffffffffffffffffffffffffffffffffffffffffff1916817bffffffffffffffffffffffffffffffffffffffffffffffffffffffff19161461115057836040517f64a0ae920000000000000000000000000000000000000000000000000000000081526004016111479190611e57565b60405180910390fd5b505b5050505050565b606060405180602001604052805f815250905090565b60605f600161117d84611904565b0190505f8167ffffffffffffffff81111561119b5761119a611feb565b5b6040519080825280601f01601f1916602001820160405280156111cd5781602001600182028036833780820191505090505b5090505f82602001820190505b60011561122e578080600190039150507f3031323334353637383961626364656600000000000000000000000000000000600a86061a8153600a8581611223576112226123eb565b5b0494505f85036111da575b819350505050919050565b5f806112448461170c565b90505f73ffffffffffffffffffffffffffffffffffffffff168373ffffffffffffffffffffffffffffffffffffffff161461128557611284818486611a55565b5b5f73ffffffffffffffffffffffffffffffffffffffff168173ffffffffffffffffffffffffffffffffffffffff1614611310576112c45f855f80611745565b600160035f8373ffffffffffffffffffffffffffffffffffffffff1673ffffffffffffffffffffffffffffffffffffffff1681526020019081526020015f205f82825403925050819055505b5f73ffffffffffffffffffffffffffffffffffffffff168573ffffffffffffffffffffffffffffffffffffffff161461138f57600160035f8773ffffffffffffffffffffffffffffffffffffffff1673ffffffffffffffffffffffffffffffffffffffff1681526020019081526020015f205f82825401925050819055505b8460025f8681526020019081526020015f205f6101000a81548173ffffffffffffffffffffffffffffffffffffffff021916908373ffffffffffffffffffffffffffffffffffffffff160217905550838573ffffffffffffffffffffffffffffffffffffffff168273ffffffffffffffffffffffffffffffffffffffff167fddf252ad1be2c89b69c2b068fc378daa952ba7f163c4a11628f55a4df523b3ef60405160405180910390a4809150509392505050565b60088054905060095f8381526020019081526020015f2081905550600881908060018154018082558091505060019003905f5260205f20015f909190919091505550565b5f611492836108f6565b90505f60075f8481526020019081526020015f205490505f60065f8673ffffffffffffffffffffffffffffffffffffffff1673ffffffffffffffffffffffffffffffffffffffff1681526020019081526020015f209050828214611531575f815f8581526020019081526020015f2054905080825f8581526020019081526020015f20819055508260075f8381526020019081526020015f2081905550505b60075f8581526020019081526020015f205f9055805f8481526020019081526020015f205f90555050505050565b5f60016008805490506115729190612418565b90505f60095f8481526020019081526020015f205490505f6008838154811061159e5761159d612286565b5b905f5260205f200154905080600883815481106115be576115bd612286565b5b905f5260205f2001819055508160095f8381526020019081526020015f208190555060095f8581526020019081526020015f205f905560088054806116065761160561244b565b5b600190038181905f5260205f20015f9055905550505050565b5f600161162b846108f6565b6116359190612418565b90508160065f8573ffffffffffffffffffffffffffffffffffffffff1673ffffffffffffffffffffffffffffffffffffffff1681526020019081526020015f205f8381526020019081526020015f20819055508060075f8481526020019081526020015f2081905550505050565b5f7f01ffc9a7000000000000000000000000000000000000000000000000000000007bffffffffffffffffffffffffffffffffffffffffffffffffffffffff1916827bffffffffffffffffffffffffffffffffffffffffffffffffffffffff1916149050919050565b5f60025f8381526020019081526020015f205f9054906101000a900473ffffffffffffffffffffffffffffffffffffffff169050919050565b808061177d57505f73ffffffffffffffffffffffffffffffffffffffff168273ffffffffffffffffffffffffffffffffffffffff1614155b156118af575f61178c84610d6c565b90505f73ffffffffffffffffffffffffffffffffffffffff168373ffffffffffffffffffffffffffffffffffffffff16141580156117f657508273ffffffffffffffffffffffffffffffffffffffff168173ffffffffffffffffffffffffffffffffffffffff1614155b801561180957506118078184610ae3565b155b1561184b57826040517fa9fbf51f0000000000000000000000000000000000000000000000000000000081526004016118429190611e57565b60405180910390fd5b81156118ad57838573ffffffffffffffffffffffffffffffffffffffff168273ffffffffffffffffffffffffffffffffffffffff167f8c5be1e5ebec7d5bd14f71427d1e84f3dd0314c0f7b2291e5b200ac8c7c3b92560405160405180910390a45b505b8360045f8581526020019081526020015f205f6101000a81548173ffffffffffffffffffffffffffffffffffffffff021916908373ffffffffffffffffffffffffffffffffffffffff16021790555050505050565b5f805f90507a184f03e93ff9f4daa797ed6e38ed64bf6a1f0100000000000000008310611960577a184f03e93ff9f4daa797ed6e38ed64bf6a1f0100000000000000008381611956576119556123eb565b5b0492506040810190505b6d04ee2d6d415b85acef8100000000831061199d576d04ee2d6d415b85acef81000000008381611993576119926123eb565b5b0492506020810190505b662386f26fc1000083106119cc57662386f26fc1000083816119c2576119c16123eb565b5b0492506010810190505b6305f5e10083106119f5576305f5e10083816119eb576119ea6123eb565b5b0492506008810190505b6127108310611a1a576127108381611a1057611a0f6123eb565b5b0492506004810190505b60648310611a3d5760648381611a3357611a326123eb565b5b0492506002810190505b600a8310611a4c576001810190505b80915050919050565b611a60838383611b18565b611b13575f73ffffffffffffffffffffffffffffffffffffffff168373ffffffffffffffffffffffffffffffffffffffff1603611ad457806040517f7e273289000000000000000000000000000000000000000000000000000000008152600401611acb9190611ee7565b60405180910390fd5b81816040517f177e802f000000000000000000000000000000000000000000000000000000008152600401611b0a92919061225f565b60405180910390fd5b505050565b5f8073ffffffffffffffffffffffffffffffffffffffff168373ffffffffffffffffffffffffffffffffffffffff1614158015611bcf57508273ffffffffffffffffffffffffffffffffffffffff168473ffffffffffffffffffffffffffffffffffffffff161480611b905750611b8f8484610ae3565b5b80611bce57508273ffffffffffffffffffffffffffffffffffffffff16611bb683610df2565b73ffffffffffffffffffffffffffffffffffffffff16145b5b90509392505050565b7f4e487b71000000000000000000000000000000000000000000000000000000005f52601160045260245ffd5b5f819050919050565b5f611c1882611c05565b91507fffffffffffffffffffffffffffffffffffffffffffffffffffffffffffffffff8203611c4a57611c49611bd8565b5b600182019050919050565b5f604051905090565b5f80fd5b5f80fd5b5f7fffffffff0000000000000000000000000000000000000000000000000000000082169050919050565b611c9a81611c66565b8114611ca4575f80fd5b50565b5f81359050611cb581611c91565b92915050565b5f60208284031215611cd057611ccf611c5e565b5b5f611cdd84828501611ca7565b91505092915050565b5f8115159050919050565b611cfa81611ce6565b82525050565b5f602082019050611d135f830184611cf1565b92915050565b5f81519050919050565b5f82825260208201905092915050565b5f5b83811015611d50578082015181840152602081019050611d35565b5f8484015250505050565b5f601f19601f8301169050919050565b5f611d7582611d19565b611d7f8185611d23565b9350611d8f818560208601611d33565b611d9881611d5b565b840191505092915050565b5f6020820190508181035f830152611dbb8184611d6b565b905092915050565b611dcc81611c05565b8114611dd6575f80fd5b50565b5f81359050611de781611dc3565b92915050565b5f60208284031215611e0257611e01611c5e565b5b5f611e0f84828501611dd9565b91505092915050565b5f73ffffffffffffffffffffffffffffffffffffffff82169050919050565b5f611e4182611e18565b9050919050565b611e5181611e37565b82525050565b5f602082019050611e6a5f830184611e48565b92915050565b611e7981611e37565b8114611e83575f80fd5b50565b5f81359050611e9481611e70565b92915050565b5f8060408385031215611eb057611eaf611c5e565b5b5f611ebd85828601611e86565b9250506020611ece85828601611dd9565b9150509250929050565b611ee181611c05565b82525050565b5f602082019050611efa5f830184611ed8565b92915050565b5f805f60608486031215611f1757611f16611c5e565b5b5f611f2486828701611e86565b9350506020611f3586828701611e86565b9250506040611f4686828701611dd9565b9150509250925092565b5f60208284031215611f6557611f64611c5e565b5b5f611f7284828501611e86565b91505092915050565b611f8481611ce6565b8114611f8e575f80fd5b50565b5f81359050611f9f81611f7b565b92915050565b5f8060408385031215611fbb57611fba611c5e565b5b5f611fc885828601611e86565b9250506020611fd985828601611f91565b9150509250929050565b5f80fd5b5f80fd5b7f4e487b71000000000000000000000000000000000000000000000000000000005f52604160045260245ffd5b61202182611d5b565b810181811067ffffffffffffffff821117156120405761203f611feb565b5b80604052505050565b5f612052611c55565b905061205e8282612018565b919050565b5f67ffffffffffffffff82111561207d5761207c611feb565b5b61208682611d5b565b9050602081019050919050565b828183375f83830152505050565b5f6120b36120ae84612063565b612049565b9050828152602081018484840111156120cf576120ce611fe7565b5b6120da848285612093565b509392505050565b5f82601f8301126120f6576120f5611fe3565b5b81356121068482602086016120a1565b91505092915050565b5f805f806080858703121561212757612126611c5e565b5b5f61213487828801611e86565b945050602061214587828801611e86565b935050604061215687828801611dd9565b925050606085013567ffffffffffffffff81111561217757612176611c62565b5b612183878288016120e2565b91505092959194509250565b5f80604083850312156121a5576121a4611c5e565b5b5f6121b285828601611e86565b92505060206121c385828601611e86565b9150509250929050565b7f4e487b71000000000000000000000000000000000000000000000000000000005f52602260045260245ffd5b5f600282049050600182168061221157607f821691505b602082108103612224576122236121cd565b5b50919050565b5f60608201905061223d5f830186611e48565b61224a6020830185611ed8565b6122576040830184611e48565b949350505050565b5f6040820190506122725f830185611e48565b61227f6020830184611ed8565b9392505050565b7f4e487b71000000000000000000000000000000000000000000000000000000005f52603260045260245ffd5b5f81905092915050565b5f6122c782611d19565b6122d181856122b3565b93506122e1818560208601611d33565b80840191505092915050565b5f6122f882856122bd565b915061230482846122bd565b91508190509392505050565b5f81519050919050565b5f82825260208201905092915050565b5f61233482612310565b61233e818561231a565b935061234e818560208601611d33565b61235781611d5b565b840191505092915050565b5f6080820190506123755f830187611e48565b6123826020830186611e48565b61238f6040830185611ed8565b81810360608301526123a1818461232a565b905095945050505050565b5f815190506123ba81611c91565b92915050565b5f602082840312156123d5576123d4611c5e565b5b5f6123e2848285016123ac565b91505092915050565b7f4e487b71000000000000000000000000000000000000000000000000000000005f52601260045260245ffd5b5f61242282611c05565b915061242d83611c05565b925082820390508181111561244557612444611bd8565b5b92915050565b7f4e487b71000000000000000000000000000000000000000000000000000000005f52603160045260245ffdfea2646970667358221220233e4a148064147f78e7411006b3ae7ed6ebe10b8029621d344227a9edf5097064736f6c63430008150033",
  "immutableReferences": {},
  "source": "// SPDX-License-Identifier: MIT\npragma solidity >=0.4.22 <0.9.0;\n\nimport \"@openzeppelin/contracts/token/ERC721/extensions/ERC721Enumerable.sol\";\n\ncontract Unchien is ERC721Enumerable {\n    string private constant _name = \"Unchien NFT\";    // \n    string private constant _symbol = \"UNCHIEN\";       // \n\n    constructor() ERC721(_name, _symbol) {}\n\n    uint256 public id;\n\n    receive() external payable {\n        _mint(msg.sender, ++id);\n    }\n}\n",
  "sourcePath": "/home/admin/JPHACK/fk_2404/react_blockchain/contracts/unchien.sol",
  "compiler": {
    "name": "solc",
    "version": "0.8.21+commit.d9974bed.Emscripten.clang"
  },
  "schemaVersion": "3.4.16",
  "updatedAt": "2024-10-26T09:47:52.120Z",
  "networkType": "ethereum",
  "devdoc": {
    "errors": {
      "ERC721EnumerableForbiddenBatchMint()": [
        {
          "details": "Batch mint is not allowed."
        }
      ],
      "ERC721IncorrectOwner(address,uint256,address)": [
        {
          "details": "Indicates an error related to the ownership over a particular token. Used in transfers.",
          "params": {
            "owner": "Address of the current owner of a token.",
            "sender": "Address whose tokens are being transferred.",
            "tokenId": "Identifier number of a token."
          }
        }
      ],
      "ERC721InsufficientApproval(address,uint256)": [
        {
          "details": "Indicates a failure with the `operator`s approval. Used in transfers.",
          "params": {
            "operator": "Address that may be allowed to operate on tokens without being their owner.",
            "tokenId": "Identifier number of a token."
          }
        }
      ],
      "ERC721InvalidApprover(address)": [
        {
          "details": "Indicates a failure with the `approver` of a token to be approved. Used in approvals.",
          "params": {
            "approver": "Address initiating an approval operation."
          }
        }
      ],
      "ERC721InvalidOperator(address)": [
        {
          "details": "Indicates a failure with the `operator` to be approved. Used in approvals.",
          "params": {
            "operator": "Address that may be allowed to operate on tokens without being their owner."
          }
        }
      ],
      "ERC721InvalidOwner(address)": [
        {
          "details": "Indicates that an address can't be an owner. For example, `address(0)` is a forbidden owner in ERC-20. Used in balance queries.",
          "params": {
            "owner": "Address of the current owner of a token."
          }
        }
      ],
      "ERC721InvalidReceiver(address)": [
        {
          "details": "Indicates a failure with the token `receiver`. Used in transfers.",
          "params": {
            "receiver": "Address to which tokens are being transferred."
          }
        }
      ],
      "ERC721InvalidSender(address)": [
        {
          "details": "Indicates a failure with the token `sender`. Used in transfers.",
          "params": {
            "sender": "Address whose tokens are being transferred."
          }
        }
      ],
      "ERC721NonexistentToken(uint256)": [
        {
          "details": "Indicates a `tokenId` whose `owner` is the zero address.",
          "params": {
            "tokenId": "Identifier number of a token."
          }
        }
      ],
      "ERC721OutOfBoundsIndex(address,uint256)": [
        {
          "details": "An `owner`'s token query was out of bounds for `index`. NOTE: The owner being `address(0)` indicates a global out of bounds index."
        }
      ]
    },
    "events": {
      "Approval(address,address,uint256)": {
        "details": "Emitted when `owner` enables `approved` to manage the `tokenId` token."
      },
      "ApprovalForAll(address,address,bool)": {
        "details": "Emitted when `owner` enables or disables (`approved`) `operator` to manage all of its assets."
      },
      "Transfer(address,address,uint256)": {
        "details": "Emitted when `tokenId` token is transferred from `from` to `to`."
      }
    },
    "kind": "dev",
    "methods": {
      "approve(address,uint256)": {
        "details": "See {IERC721-approve}."
      },
      "balanceOf(address)": {
        "details": "See {IERC721-balanceOf}."
      },
      "getApproved(uint256)": {
        "details": "See {IERC721-getApproved}."
      },
      "isApprovedForAll(address,address)": {
        "details": "See {IERC721-isApprovedForAll}."
      },
      "name()": {
        "details": "See {IERC721Metadata-name}."
      },
      "ownerOf(uint256)": {
        "details": "See {IERC721-ownerOf}."
      },
      "safeTransferFrom(address,address,uint256)": {
        "details": "See {IERC721-safeTransferFrom}."
      },
      "safeTransferFrom(address,address,uint256,bytes)": {
        "details": "See {IERC721-safeTransferFrom}."
      },
      "setApprovalForAll(address,bool)": {
        "details": "See {IERC721-setApprovalForAll}."
      },
      "supportsInterface(bytes4)": {
        "details": "See {IERC165-supportsInterface}."
      },
      "symbol()": {
        "details": "See {IERC721Metadata-symbol}."
      },
      "tokenByIndex(uint256)": {
        "details": "See {IERC721Enumerable-tokenByIndex}."
      },
      "tokenOfOwnerByIndex(address,uint256)": {
        "details": "See {IERC721Enumerable-tokenOfOwnerByIndex}."
      },
      "tokenURI(uint256)": {
        "details": "See {IERC721Metadata-tokenURI}."
      },
      "totalSupply()": {
        "details": "See {IERC721Enumerable-totalSupply}."
      },
      "transferFrom(address,address,uint256)": {
        "details": "See {IERC721-transferFrom}."
      }
    },
    "version": 1
  },
  "userdoc": {
    "kind": "user",
    "methods": {},
    "version": 1
  }
}